{
    "txid": "58760e36e4c244f169cd67d53b3ad7198f69227fed1beaa005648512a4351db1",
    "hash": "58760e36e4c244f169cd67d53b3ad7198f69227fed1beaa005648512a4351db1",
    "version": 2,
    "size": 191,
    "locktime": 0,
    "vin": [
        {
            "txid": "4d49a71ec9da436f71ec4ee231d04f292a29cd316f598bb7068feccabdc59485",
            "vout": 0,
            "scriptSig": {
                "asm": "3044022026eff7ec933e50937d30cc8a7a4322db3c6f61c82afa47601e2c8aedebf86f5202202c173e2aae3bac8359196b6067ce407875913fe72bc91ef4337f8ee22cad140f[NONE|BIP341] 02c6047f9441ed7d6d3045406e95c07cd85c778e4b8cef3ca7abac09b95c709ee5",
                "hex": "473044022026eff7ec933e50937d30cc8a7a4322db3c6f61c82afa47601e2c8aedebf86f5202202c173e2aae3bac8359196b6067ce407875913fe72bc91ef4337f8ee22cad140f622102c6047f9441ed7d6d3045406e95c07cd85c778e4b8cef3ca7abac09b95c709ee5"
            },
            "sequence": 4294967295
        }
    ],
    "vout": [
        {
            "value": 0.00100000,
            "n": 0,
            "scriptPubKey": {
                "asm": "OP_DUP OP_HASH160 06afd46bcdfd22ef94ac122aa11f241244a37ecc OP_EQUALVERIFY OP_CHECKSIG",
                "hex": "76a91406afd46bcdfd22ef94ac122aa11f241244a37ecc88ac",
                "reqSigs": 1,
                "type": "pubkeyhash",
                "addresses": [
                    "1cMh228HTCiwS8ZsaakH8A8wze1JR5ZsP"
                ]
            }
        }
    ],
    "hex": "02000000018594c5bdcaec8f06b78b596f31cd292a294fd031e24eec716f43dac91ea7494d000000006a473044022026eff7ec933e50937d30cc8a7a4322db3c6f61c82afa47601e2c8aedebf86f5202202c173e2aae3bac8359196b6067ce407875913fe72bc91ef4337f8ee22cad140f622102c6047f9441ed7d6d3045406e95c07cd85c778e4b8cef3ca7abac09b95c709ee5ffffffff01a0860100000000001976a91406afd46bcdfd22ef94ac122aa11f241244a37ecc88ac00000000"
}
