{
    "txid": "703b165ed20cffab0a5df5ad38b77a93b6e1e250e7a1d6d18162b546ab67f452",
    "hash": "6748c6aef361687aab03b1de9e3a8325a78165323a9d07cbe06f1dc381ca2201",
    "version": 2,
    "size": 191,
    "locktime": 0,
    "vin": [
        {
            "txid": "4d49a71ec9da436f71ec4ee231d04f292a29cd316f598bb7068feccabdc59485",
            "vout": 0,
            "scriptSig": {
                "asm": "3044022056039a69b3ee5f5065fddaf63c2303a1f95653f82e207c92160dbde9ec99ebf5022016ee64ae80f1f56015fa66156f14b8f681339dcd434896c9205fae8d3dd1edac[SINGLE|LOTUS|ANYONECANPAY] 02c6047f9441ed7d6d3045406e95c07cd85c778e4b8cef3ca7abac09b95c709ee5",
                "hex": "473044022056039a69b3ee5f5065fddaf63c2303a1f95653f82e207c92160dbde9ec99ebf5022016ee64ae80f1f56015fa66156f14b8f681339dcd434896c9205fae8d3dd1edace32102c6047f9441ed7d6d3045406e95c07cd85c778e4b8cef3ca7abac09b95c709ee5"
            },
            "sequence": 4294967295
        }
    ],
    "vout": [
        {
            "value": 0.100000,
            "n": 0,
            "scriptPubKey": {
                "asm": "OP_DUP OP_HASH160 06afd46bcdfd22ef94ac122aa11f241244a37ecc OP_EQUALVERIFY OP_CHECKSIG",
                "hex": "76a91406afd46bcdfd22ef94ac122aa11f241244a37ecc88ac",
                "reqSigs": 1,
                "type": "pubkeyhash",
                "addresses": [
                    "lotus_16PSJHKLkxiakqViQDC1rKbuWhdJW3xE9X3p8XuJ2"
                ]
            }
        }
    ],
    "hex": "02000000018594c5bdcaec8f06b78b596f31cd292a294fd031e24eec716f43dac91ea7494d000000006a473044022056039a69b3ee5f5065fddaf63c2303a1f95653f82e207c92160dbde9ec99ebf5022016ee64ae80f1f56015fa66156f14b8f681339dcd434896c9205fae8d3dd1edace32102c6047f9441ed7d6d3045406e95c07cd85c778e4b8cef3ca7abac09b95c709ee5ffffffff01a0860100000000001976a91406afd46bcdfd22ef94ac122aa11f241244a37ecc88ac00000000"
}
