{
    "txid": "703b165ed20cffab0a5df5ad38b77a93b6e1e250e7a1d6d18162b546ab67f452",
    "hash": "992e7ac4ebba029956f6df08817de49a6ccd7b296d6f68bf8b7a6846fab82eaf",
    "version": 2,
    "size": 191,
    "locktime": 0,
    "vin": [
        {
            "txid": "4d49a71ec9da436f71ec4ee231d04f292a29cd316f598bb7068feccabdc59485",
            "vout": 0,
            "scriptSig": {
                "asm": "3044022077f44e39e3a3ae076341efae954f84a10211576fffc0106e20d979bcb8aeb665022026f765d100c4b3f0e1f3482a676fd60f725d81d5afd2172adfa23281bbdff97d[SINGLE|BIP341|ANYONECANPAY] 02c6047f9441ed7d6d3045406e95c07cd85c778e4b8cef3ca7abac09b95c709ee5",
                "hex": "473044022077f44e39e3a3ae076341efae954f84a10211576fffc0106e20d979bcb8aeb665022026f765d100c4b3f0e1f3482a676fd60f725d81d5afd2172adfa23281bbdff97de32102c6047f9441ed7d6d3045406e95c07cd85c778e4b8cef3ca7abac09b95c709ee5"
            },
            "sequence": 4294967295
        }
    ],
    "vout": [
        {
            "value": 0.00100000,
            "n": 0,
            "scriptPubKey": {
                "asm": "OP_DUP OP_HASH160 06afd46bcdfd22ef94ac122aa11f241244a37ecc OP_EQUALVERIFY OP_CHECKSIG",
                "hex": "76a91406afd46bcdfd22ef94ac122aa11f241244a37ecc88ac",
                "reqSigs": 1,
                "type": "pubkeyhash",
                "addresses": [
                    "1cMh228HTCiwS8ZsaakH8A8wze1JR5ZsP"
                ]
            }
        }
    ],
    "hex": "02000000018594c5bdcaec8f06b78b596f31cd292a294fd031e24eec716f43dac91ea7494d000000006a473044022077f44e39e3a3ae076341efae954f84a10211576fffc0106e20d979bcb8aeb665022026f765d100c4b3f0e1f3482a676fd60f725d81d5afd2172adfa23281bbdff97de32102c6047f9441ed7d6d3045406e95c07cd85c778e4b8cef3ca7abac09b95c709ee5ffffffff01a0860100000000001976a91406afd46bcdfd22ef94ac122aa11f241244a37ecc88ac00000000"
}
