{
    "txid": "fc57c51c8b9166f48907ba34f3496811682276280cc1cd36bebd3fdb988fcfa0",
    "hash": "fc57c51c8b9166f48907ba34f3496811682276280cc1cd36bebd3fdb988fcfa0",
    "version": 2,
    "size": 191,
    "locktime": 0,
    "vin": [
        {
            "txid": "4d49a71ec9da436f71ec4ee231d04f292a29cd316f598bb7068feccabdc59485",
            "vout": 0,
            "scriptSig": {
                "asm": "304402201a964923f1cee629c5db30fefbf39a90ff388a21fc912d87bf02d98cca7b7beb0220090a58e5242cfa71992cc4c2c0ba49727c8bd0ab749c5789f7310c121af244f6[NONE|BIP341|ANYONECANPAY] 02c6047f9441ed7d6d3045406e95c07cd85c778e4b8cef3ca7abac09b95c709ee5",
                "hex": "47304402201a964923f1cee629c5db30fefbf39a90ff388a21fc912d87bf02d98cca7b7beb0220090a58e5242cfa71992cc4c2c0ba49727c8bd0ab749c5789f7310c121af244f6e22102c6047f9441ed7d6d3045406e95c07cd85c778e4b8cef3ca7abac09b95c709ee5"
            },
            "sequence": 4294967295
        }
    ],
    "vout": [
        {
            "value": 0.00100000,
            "n": 0,
            "scriptPubKey": {
                "asm": "OP_DUP OP_HASH160 06afd46bcdfd22ef94ac122aa11f241244a37ecc OP_EQUALVERIFY OP_CHECKSIG",
                "hex": "76a91406afd46bcdfd22ef94ac122aa11f241244a37ecc88ac",
                "reqSigs": 1,
                "type": "pubkeyhash",
                "addresses": [
                    "1cMh228HTCiwS8ZsaakH8A8wze1JR5ZsP"
                ]
            }
        }
    ],
    "hex": "02000000018594c5bdcaec8f06b78b596f31cd292a294fd031e24eec716f43dac91ea7494d000000006a47304402201a964923f1cee629c5db30fefbf39a90ff388a21fc912d87bf02d98cca7b7beb0220090a58e5242cfa71992cc4c2c0ba49727c8bd0ab749c5789f7310c121af244f6e22102c6047f9441ed7d6d3045406e95c07cd85c778e4b8cef3ca7abac09b95c709ee5ffffffff01a0860100000000001976a91406afd46bcdfd22ef94ac122aa11f241244a37ecc88ac00000000"
}
