{
    "txid": "703b165ed20cffab0a5df5ad38b77a93b6e1e250e7a1d6d18162b546ab67f452",
    "hash": "0e3ce5f89923c8b1d5bbf24ec77614f2bd8bb1923d9049b3b6614e673d41ace6",
    "version": 2,
    "size": 191,
    "locktime": 0,
    "vin": [
        {
            "txid": "4d49a71ec9da436f71ec4ee231d04f292a29cd316f598bb7068feccabdc59485",
            "vout": 0,
            "scriptSig": {
                "asm": "30440220070bfd21d545d4c35b3f4fc4da18f7365a41a169b101d1c0e1c396ad0f87bbc80220393845bdeedf89d00a28e495c8f6da9ab8c81053e41918f7f9893de27812a5fd[ALL|LOTUS|ANYONECANPAY] 02c6047f9441ed7d6d3045406e95c07cd85c778e4b8cef3ca7abac09b95c709ee5",
                "hex": "4730440220070bfd21d545d4c35b3f4fc4da18f7365a41a169b101d1c0e1c396ad0f87bbc80220393845bdeedf89d00a28e495c8f6da9ab8c81053e41918f7f9893de27812a5fde12102c6047f9441ed7d6d3045406e95c07cd85c778e4b8cef3ca7abac09b95c709ee5"
            },
            "sequence": 4294967295
        }
    ],
    "vout": [
        {
            "value": 0.00100000,
            "n": 0,
            "scriptPubKey": {
                "asm": "OP_DUP OP_HASH160 06afd46bcdfd22ef94ac122aa11f241244a37ecc OP_EQUALVERIFY OP_CHECKSIG",
                "hex": "76a91406afd46bcdfd22ef94ac122aa11f241244a37ecc88ac",
                "reqSigs": 1,
                "type": "pubkeyhash",
                "addresses": [
                    "1cMh228HTCiwS8ZsaakH8A8wze1JR5ZsP"
                ]
            }
        }
    ],
    "hex": "02000000018594c5bdcaec8f06b78b596f31cd292a294fd031e24eec716f43dac91ea7494d000000006a4730440220070bfd21d545d4c35b3f4fc4da18f7365a41a169b101d1c0e1c396ad0f87bbc80220393845bdeedf89d00a28e495c8f6da9ab8c81053e41918f7f9893de27812a5fde12102c6047f9441ed7d6d3045406e95c07cd85c778e4b8cef3ca7abac09b95c709ee5ffffffff01a0860100000000001976a91406afd46bcdfd22ef94ac122aa11f241244a37ecc88ac00000000"
}
