{
    "txid": "703b165ed20cffab0a5df5ad38b77a93b6e1e250e7a1d6d18162b546ab67f452",
    "hash": "ce92eaf3c7055e10218de7d745794d94d62e344771e91583fc76079cf96ccf1f",
    "version": 2,
    "size": 191,
    "locktime": 0,
    "vin": [
        {
            "txid": "4d49a71ec9da436f71ec4ee231d04f292a29cd316f598bb7068feccabdc59485",
            "vout": 0,
            "scriptSig": {
                "asm": "30440220017a4bf63554e2f6ba7e59ae4362751caab139810219179fb5b383a711388075022072b7bfcf23097bfc1513965a58da5b6004a03ff6ce7b13bf268519bb64e4cd92[SINGLE|LOTUS] 02c6047f9441ed7d6d3045406e95c07cd85c778e4b8cef3ca7abac09b95c709ee5",
                "hex": "4730440220017a4bf63554e2f6ba7e59ae4362751caab139810219179fb5b383a711388075022072b7bfcf23097bfc1513965a58da5b6004a03ff6ce7b13bf268519bb64e4cd92632102c6047f9441ed7d6d3045406e95c07cd85c778e4b8cef3ca7abac09b95c709ee5"
            },
            "sequence": 4294967295
        }
    ],
    "vout": [
        {
            "value": 0.00100000,
            "n": 0,
            "scriptPubKey": {
                "asm": "OP_DUP OP_HASH160 06afd46bcdfd22ef94ac122aa11f241244a37ecc OP_EQUALVERIFY OP_CHECKSIG",
                "hex": "76a91406afd46bcdfd22ef94ac122aa11f241244a37ecc88ac",
                "reqSigs": 1,
                "type": "pubkeyhash",
                "addresses": [
                    "1cMh228HTCiwS8ZsaakH8A8wze1JR5ZsP"
                ]
            }
        }
    ],
    "hex": "02000000018594c5bdcaec8f06b78b596f31cd292a294fd031e24eec716f43dac91ea7494d000000006a4730440220017a4bf63554e2f6ba7e59ae4362751caab139810219179fb5b383a711388075022072b7bfcf23097bfc1513965a58da5b6004a03ff6ce7b13bf268519bb64e4cd92632102c6047f9441ed7d6d3045406e95c07cd85c778e4b8cef3ca7abac09b95c709ee5ffffffff01a0860100000000001976a91406afd46bcdfd22ef94ac122aa11f241244a37ecc88ac00000000"
}
