{
    "txid": "334256a59387797146757632b4c33bcfde0152b340e9a7639513cc25de6c32bc",
    "hash": "334256a59387797146757632b4c33bcfde0152b340e9a7639513cc25de6c32bc",
    "version": 2,
    "size": 190,
    "locktime": 0,
    "vin": [
        {
            "txid": "4d49a71ec9da436f71ec4ee231d04f292a29cd316f598bb7068feccabdc59485",
            "vout": 0,
            "scriptSig": {
                "asm": "3043021f302b36058b8617d81259d9da25e91b321eecf9d3826f36b83f7671572d0aa2022049b222b2e9d8356d22efcda07931d9360e2a4cdadabb62723463b5111d4a59ae63 02c6047f9441ed7d6d3045406e95c07cd85c778e4b8cef3ca7abac09b95c709ee5",
                "hex": "463043021f302b36058b8617d81259d9da25e91b321eecf9d3826f36b83f7671572d0aa2022049b222b2e9d8356d22efcda07931d9360e2a4cdadabb62723463b5111d4a59ae632102c6047f9441ed7d6d3045406e95c07cd85c778e4b8cef3ca7abac09b95c709ee5"
            },
            "sequence": 4294967295
        }
    ],
    "vout": [
        {
            "value": 0.00100000,
            "n": 0,
            "scriptPubKey": {
                "asm": "OP_DUP OP_HASH160 06afd46bcdfd22ef94ac122aa11f241244a37ecc OP_EQUALVERIFY OP_CHECKSIG",
                "hex": "76a91406afd46bcdfd22ef94ac122aa11f241244a37ecc88ac",
                "reqSigs": 1,
                "type": "pubkeyhash",
                "addresses": [
                    "1cMh228HTCiwS8ZsaakH8A8wze1JR5ZsP"
                ]
            }
        }
    ],
    "hex": "02000000018594c5bdcaec8f06b78b596f31cd292a294fd031e24eec716f43dac91ea7494d0000000069463043021f302b36058b8617d81259d9da25e91b321eecf9d3826f36b83f7671572d0aa2022049b222b2e9d8356d22efcda07931d9360e2a4cdadabb62723463b5111d4a59ae632102c6047f9441ed7d6d3045406e95c07cd85c778e4b8cef3ca7abac09b95c709ee5ffffffff01a0860100000000001976a91406afd46bcdfd22ef94ac122aa11f241244a37ecc88ac00000000"
}
