{
    "txid": "703b165ed20cffab0a5df5ad38b77a93b6e1e250e7a1d6d18162b546ab67f452",
    "hash": "b6e510f08bd2215da621d1e900a370c7d2cb0442cf50b4b90fdd220b794784cf",
    "version": 2,
    "size": 191,
    "locktime": 0,
    "vin": [
        {
            "txid": "4d49a71ec9da436f71ec4ee231d04f292a29cd316f598bb7068feccabdc59485",
            "vout": 0,
            "scriptSig": {
                "asm": "3044022016f068d4fd04b4f5ac45883503da5809da77bd8f9de132cfa5b03681a23f62c302204f7595f832b8c6948314b4791f98c4b8087a896a329a2806e80d958b95b830cd[NONE|LOTUS] 02c6047f9441ed7d6d3045406e95c07cd85c778e4b8cef3ca7abac09b95c709ee5",
                "hex": "473044022016f068d4fd04b4f5ac45883503da5809da77bd8f9de132cfa5b03681a23f62c302204f7595f832b8c6948314b4791f98c4b8087a896a329a2806e80d958b95b830cd622102c6047f9441ed7d6d3045406e95c07cd85c778e4b8cef3ca7abac09b95c709ee5"
            },
            "sequence": 4294967295
        }
    ],
    "vout": [
        {
            "value": 0.100000,
            "n": 0,
            "scriptPubKey": {
                "asm": "OP_DUP OP_HASH160 06afd46bcdfd22ef94ac122aa11f241244a37ecc OP_EQUALVERIFY OP_CHECKSIG",
                "hex": "76a91406afd46bcdfd22ef94ac122aa11f241244a37ecc88ac",
                "reqSigs": 1,
                "type": "pubkeyhash",
                "addresses": [
                    "1cMh228HTCiwS8ZsaakH8A8wze1JR5ZsP"
                ]
            }
        }
    ],
    "hex": "02000000018594c5bdcaec8f06b78b596f31cd292a294fd031e24eec716f43dac91ea7494d000000006a473044022016f068d4fd04b4f5ac45883503da5809da77bd8f9de132cfa5b03681a23f62c302204f7595f832b8c6948314b4791f98c4b8087a896a329a2806e80d958b95b830cd622102c6047f9441ed7d6d3045406e95c07cd85c778e4b8cef3ca7abac09b95c709ee5ffffffff01a0860100000000001976a91406afd46bcdfd22ef94ac122aa11f241244a37ecc88ac00000000"
}
