{
    "txid": "8d74a3e1442cfb0311bcecd6b0fff9a44da8a2a64063ceaaa01942cd46b8ea40",
    "hash": "a9721fae371048c3704eff0d08a80eb9c4f68719585a374eb9310b952abda82c",
    "version": 1,
    "size": 223,
    "locktime": 0,
    "vin": [
        {
            "txid": "4d49a71ec9da436f71ec4ee231d04f292a29cd316f598bb7068feccabdc59485",
            "vout": 0,
            "scriptSig": {
                "asm": "304402204d6d105cc6e280f94e7ae6cc0d77387e377704da6218ffbba948a054c6796efd02200bd3bddf054b436d7f1446b6a194563ec41def89f896c7dc7fcecfc3b88b838d[ALL|FORKID] 0479be667ef9dcbbac55a06295ce870b07029bfcdb2dce28d959f2815b16f81798483ada7726a3c4655da4fbfc0e1108a8fd17b448a68554199c47d08ffb10d4b8",
                "hex": "47304402204d6d105cc6e280f94e7ae6cc0d77387e377704da6218ffbba948a054c6796efd02200bd3bddf054b436d7f1446b6a194563ec41def89f896c7dc7fcecfc3b88b838d41410479be667ef9dcbbac55a06295ce870b07029bfcdb2dce28d959f2815b16f81798483ada7726a3c4655da4fbfc0e1108a8fd17b448a68554199c47d08ffb10d4b8"
            },
            "sequence": 4294967295
        }
    ],
    "vout": [
        {
            "value": 0.100000,
            "n": 0,
            "scriptPubKey": {
                "asm": "OP_DUP OP_HASH160 5834479edbbe0539b31ffd3a8f8ebadc2165ed01 OP_EQUALVERIFY OP_CHECKSIG",
                "hex": "76a9145834479edbbe0539b31ffd3a8f8ebadc2165ed0188ac",
                "reqSigs": 1,
                "type": "pubkeyhash",
                "addresses": [
                    "193P6LtvS4nCnkDvM9uXn1gsSRqh4aDAz7"
                ]
            }
        }
    ],
    "hex": "01000000018594c5bdcaec8f06b78b596f31cd292a294fd031e24eec716f43dac91ea7494d000000008a47304402204d6d105cc6e280f94e7ae6cc0d77387e377704da6218ffbba948a054c6796efd02200bd3bddf054b436d7f1446b6a194563ec41def89f896c7dc7fcecfc3b88b838d41410479be667ef9dcbbac55a06295ce870b07029bfcdb2dce28d959f2815b16f81798483ada7726a3c4655da4fbfc0e1108a8fd17b448a68554199c47d08ffb10d4b8ffffffff01a0860100000000001976a9145834479edbbe0539b31ffd3a8f8ebadc2165ed0188ac00000000"
}
