{
    "txid": "703b165ed20cffab0a5df5ad38b77a93b6e1e250e7a1d6d18162b546ab67f452",
    "hash": "4edf40b8094d7e3b805a546858da7e0ae8d54febb9d78ca80536b27efcab0f40",
    "version": 2,
    "size": 191,
    "locktime": 0,
    "vin": [
        {
            "txid": "4d49a71ec9da436f71ec4ee231d04f292a29cd316f598bb7068feccabdc59485",
            "vout": 0,
            "scriptSig": {
                "asm": "30440220161718022e785211d510d800ca04987ea5b7fdbfbb4f39e9953726356ad5c9d502206b7d8cc396e1e76c7bf234c32756d297729c16b678cc33b8325c983154aa4d63[NONE|LOTUS|ANYONECANPAY] 02c6047f9441ed7d6d3045406e95c07cd85c778e4b8cef3ca7abac09b95c709ee5",
                "hex": "4730440220161718022e785211d510d800ca04987ea5b7fdbfbb4f39e9953726356ad5c9d502206b7d8cc396e1e76c7bf234c32756d297729c16b678cc33b8325c983154aa4d63e22102c6047f9441ed7d6d3045406e95c07cd85c778e4b8cef3ca7abac09b95c709ee5"
            },
            "sequence": 4294967295
        }
    ],
    "vout": [
        {
            "value": 0.100000,
            "n": 0,
            "scriptPubKey": {
                "asm": "OP_DUP OP_HASH160 06afd46bcdfd22ef94ac122aa11f241244a37ecc OP_EQUALVERIFY OP_CHECKSIG",
                "hex": "76a91406afd46bcdfd22ef94ac122aa11f241244a37ecc88ac",
                "reqSigs": 1,
                "type": "pubkeyhash",
                "addresses": [
                    "lotus_16PSJHKLkxiakqViQDC1rKbuWhdJW3xE9X3p8XuJ2"
                ]
            }
        }
    ],
    "hex": "02000000018594c5bdcaec8f06b78b596f31cd292a294fd031e24eec716f43dac91ea7494d000000006a4730440220161718022e785211d510d800ca04987ea5b7fdbfbb4f39e9953726356ad5c9d502206b7d8cc396e1e76c7bf234c32756d297729c16b678cc33b8325c983154aa4d63e22102c6047f9441ed7d6d3045406e95c07cd85c778e4b8cef3ca7abac09b95c709ee5ffffffff01a0860100000000001976a91406afd46bcdfd22ef94ac122aa11f241244a37ecc88ac00000000"
}
