{
    "txid": "ddf1d3c333dbd1e95438a8839c38b37d7e5fabf86524e25cc5ebdb91fd15c50f",
    "hash": "ddf1d3c333dbd1e95438a8839c38b37d7e5fabf86524e25cc5ebdb91fd15c50f",
    "version": 2,
    "size": 191,
    "locktime": 0,
    "vin": [
        {
            "txid": "4d49a71ec9da436f71ec4ee231d04f292a29cd316f598bb7068feccabdc59485",
            "vout": 0,
            "scriptSig": {
                "asm": "30440220700acff16c7fb62285d1bfb598fbb3ecfe3abfc9e94cb27d3e25f01bc419198d022064b9f58b3a0637f4673492b86a5b5aa78da87339ebf6826558f6abda7c557bf9[ALL|BIP341] 02c6047f9441ed7d6d3045406e95c07cd85c778e4b8cef3ca7abac09b95c709ee5",
                "hex": "4730440220700acff16c7fb62285d1bfb598fbb3ecfe3abfc9e94cb27d3e25f01bc419198d022064b9f58b3a0637f4673492b86a5b5aa78da87339ebf6826558f6abda7c557bf9612102c6047f9441ed7d6d3045406e95c07cd85c778e4b8cef3ca7abac09b95c709ee5"
            },
            "sequence": 4294967295
        }
    ],
    "vout": [
        {
            "value": 0.00100000,
            "n": 0,
            "scriptPubKey": {
                "asm": "OP_DUP OP_HASH160 06afd46bcdfd22ef94ac122aa11f241244a37ecc OP_EQUALVERIFY OP_CHECKSIG",
                "hex": "76a91406afd46bcdfd22ef94ac122aa11f241244a37ecc88ac",
                "reqSigs": 1,
                "type": "pubkeyhash",
                "addresses": [
                    "1cMh228HTCiwS8ZsaakH8A8wze1JR5ZsP"
                ]
            }
        }
    ],
    "hex": "02000000018594c5bdcaec8f06b78b596f31cd292a294fd031e24eec716f43dac91ea7494d000000006a4730440220700acff16c7fb62285d1bfb598fbb3ecfe3abfc9e94cb27d3e25f01bc419198d022064b9f58b3a0637f4673492b86a5b5aa78da87339ebf6826558f6abda7c557bf9612102c6047f9441ed7d6d3045406e95c07cd85c778e4b8cef3ca7abac09b95c709ee5ffffffff01a0860100000000001976a91406afd46bcdfd22ef94ac122aa11f241244a37ecc88ac00000000"
}
