{
    "txid": "19826ffef1f81f70b847b8eba42a45a4fa9d6e7cfa974c051a5215ac163c7e79",
    "hash": "19826ffef1f81f70b847b8eba42a45a4fa9d6e7cfa974c051a5215ac163c7e79",
    "version": 1,
    "size": 191,
    "locktime": 0,
    "vin": [
        {
            "txid": "4d49a71ec9da436f71ec4ee231d04f292a29cd316f598bb7068feccabdc59485",
            "vout": 0,
            "scriptSig": {
                "asm": "304402204730710e773c6dccc773e473d1d67864c2489261fb810e79e7325ff42e1461a802202f6db04038b18d0077b911769cef7c30e405df971a2922f79d6d0118c98fcd5e61 02c6047f9441ed7d6d3045406e95c07cd85c778e4b8cef3ca7abac09b95c709ee5",
                "hex": "47304402204730710e773c6dccc773e473d1d67864c2489261fb810e79e7325ff42e1461a802202f6db04038b18d0077b911769cef7c30e405df971a2922f79d6d0118c98fcd5e612102c6047f9441ed7d6d3045406e95c07cd85c778e4b8cef3ca7abac09b95c709ee5"
            },
            "sequence": 4294967295
        }
    ],
    "vout": [
        {
            "value": 0.00100000,
            "n": 0,
            "scriptPubKey": {
                "asm": "OP_DUP OP_HASH160 06afd46bcdfd22ef94ac122aa11f241244a37ecc OP_EQUALVERIFY OP_CHECKSIG",
                "hex": "76a91406afd46bcdfd22ef94ac122aa11f241244a37ecc88ac",
                "reqSigs": 1,
                "type": "pubkeyhash",
                "addresses": [
                    "1cMh228HTCiwS8ZsaakH8A8wze1JR5ZsP"
                ]
            }
        }
    ],
    "hex": "01000000018594c5bdcaec8f06b78b596f31cd292a294fd031e24eec716f43dac91ea7494d000000006a47304402204730710e773c6dccc773e473d1d67864c2489261fb810e79e7325ff42e1461a802202f6db04038b18d0077b911769cef7c30e405df971a2922f79d6d0118c98fcd5e612102c6047f9441ed7d6d3045406e95c07cd85c778e4b8cef3ca7abac09b95c709ee5ffffffff01a0860100000000001976a91406afd46bcdfd22ef94ac122aa11f241244a37ecc88ac00000000"
}
