[
["The following are deserialized transactions which are valid."],
["They are in the form"],
["[[[prevout hash, prevout index, prevout scriptPubKey, amount?], [input 2], ...],"],
["serializedTransaction, verifyFlags]"],
["Objects that are only a single string (like this one) are ignored"],

["A nearly-standard transaction with CHECKSIGVERIFY 1 instead of CHECKSIG"],
[[["0000000000000000000000000000000000000000000000000000000000000100", 0, "DUP HASH160 0x14 0x5b6462475454710f3c22f5fdf0b40704c92f25c3 EQUALVERIFY CHECKSIGVERIFY 1"]],
"01000000010001000000000000000000000000000000000000000000000000000000000000000000006a473044022067288ea50aa799543a536ff9306f8e1cba05b9c6b10951175b924f96732555ed022026d7b5265f38d21541519e4a1e55044d5b9e17e15cdbaf29ae3792e99e883e7a012103ba8c8b86dea131c22ab967e6dd99bdae8eff7a1f75a2c35f1f944109e3fe5e22ffffffff010000000000000000015100000000", ""],

["Same as above, but with the signature duplicated in the scriptPubKey with the proper pushdata prefix"],
[[["0000000000000000000000000000000000000000000000000000000000000100", 0, "DUP HASH160 0x14 0x5b6462475454710f3c22f5fdf0b40704c92f25c3 EQUALVERIFY CHECKSIGVERIFY 1 0x47 0x3044022067288ea50aa799543a536ff9306f8e1cba05b9c6b10951175b924f96732555ed022026d7b5265f38d21541519e4a1e55044d5b9e17e15cdbaf29ae3792e99e883e7a01"]],
"01000000010001000000000000000000000000000000000000000000000000000000000000000000006a473044022067288ea50aa799543a536ff9306f8e1cba05b9c6b10951175b924f96732555ed022026d7b5265f38d21541519e4a1e55044d5b9e17e15cdbaf29ae3792e99e883e7a012103ba8c8b86dea131c22ab967e6dd99bdae8eff7a1f75a2c35f1f944109e3fe5e22ffffffff010000000000000000015100000000", ""],

["The following tests for the presence of a bug in the handling of SIGHASH_SINGLE"],
["It results in signing the constant 1, instead of something generated based on the transaction,"],
["when the input doing the signing has an index greater than the maximum output index"],
[[["0000000000000000000000000000000000000000000000000000000000000200", 0, "1"], ["0000000000000000000000000000000000000000000000000000000000000100", 0, "DUP HASH160 0x14 0xe52b482f2faa8ecbf0db344f93c84ac908557f33 EQUALVERIFY CHECKSIG"]],
"01000000020002000000000000000000000000000000000000000000000000000000000000000000000151ffffffff0001000000000000000000000000000000000000000000000000000000000000000000006b483045022100c9cdd08798a28af9d1baf44a6c77bcc7e279f47dc487c8c899911bc48feaffcc0220503c5c50ae3998a733263c5c0f7061b483e2b56c4c41b456e7d2f5a78a74c077032102d5c25adb51b61339d2b05315791e21bbe80ea470a49db0135720983c905aace0ffffffff010000000000000000015100000000", ""],

["The following tests SIGHASH_SINGLE|SIGHASHANYONECANPAY inputs"],
[[["437a1002eb125dec0f93f635763e0ae45f28ff8e81d82945753d0107611cd390", 1, "DUP HASH160 0x14 0x383fb81cb0a3fc724b5e08cf8bbd404336d711f6 EQUALVERIFY CHECKSIG"],
  ["2d48d32ccad087bcda0ac5b31555bd58d1d2568184cbc8e752dd2be2684af03f", 1, "DUP HASH160 0x14 0x275ec2a233e5b23d43fa19e7bf9beb0cb3996117 EQUALVERIFY CHECKSIG"],
  ["c76168ef1a272a4f176e55e73157ecfce040cfad16a5272f6296eb7089dca846", 1, "DUP HASH160 0x14 0x34fea2c5a75414fd945273ae2d029ce1f28dafcf EQUALVERIFY CHECKSIG"]],
"010000000390d31c6107013d754529d8818eff285fe40a3e7635f6930fec5d12eb02107a43010000006b483045022100f40815ae3c81a0dd851cc8d376d6fd226c88416671346a9033468cca2cdcc6c202204f764623903e6c4bed1b734b75d82c40f1725e4471a55ad4f51218f86130ac038321033d710ab45bb54ac99618ad23b3c1da661631aa25f23bfe9d22b41876f1d46e4effffffff3ff04a68e22bdd52e7c8cb848156d2d158bd5515b3c50adabc87d0ca2cd3482d010000006a4730440220598d263c107004008e9e26baa1e770be30fd31ee55ded1898f7c00da05a75977022045536bead322ca246779698b9c3df3003377090f41afeca7fb2ce9e328ec4af2832102b738b531def73020bd637f32935924cc88549c8206976226d968edd3a42fc2d7ffffffff46a8dc8970eb96622f27a516adcf40e0fcec5731e7556e174f2a271aef6861c7010000006b483045022100c5b90a777a9fdc90c208dbef7290d1fc1be651f47151ee4ccff646872a454cf90220640cfbc4550446968fbbe9d12528f3adf7d87b31541569c59e790db8a220482583210391332546e22bbe8fe3af54addfad6f8b83d05fa4f5e047593d4c07ae938795beffffffff028036be26000000001976a914ddfb29efad43a667465ac59ff14dc6442a1adfca88ac3d5cba01000000001976a914b64dde7a505a13ca986c40e86e984a8dc81368b688ac00000000", ""],

["Tests for CheckTransaction()"],
["MAX_MONEY output"],
[[["0000000000000000000000000000000000000000000000000000000000000100", 0, "HASH160 0x14 0x32afac281462b822adbec5094b8d4d337dd5bd6a EQUAL"]],
"01000000010001000000000000000000000000000000000000000000000000000000000000000000006d483045022100e1eadba00d9296c743cb6ecc703fd9ddc9b3cd12906176a226ae4c18d6b00796022058e51082d78b210097e459f7f0e4d8730e33234a4d9815b5cba1451bd04e4b02012321030c0588dc44d92bdcbf8e72093466766fdc265ead8db64517b0c542275b70fffbacffffffff010040075af0750700015100000000", ""],

["MAX_MONEY output + 0 output"],
[[["0000000000000000000000000000000000000000000000000000000000000100", 0, "HASH160 0x14 0xb558cbf4930954aa6a344363a15668d7477ae716 EQUAL"]],
"01000000010001000000000000000000000000000000000000000000000000000000000000000000006c473044022027deccc14aa6668e78a8c9da3484fbcd4f9dcc9bb7d1b85146314b21b9ae4d8602202f4bc21317304f8cb721f35743a479d74b064d678e10682a971a9b221d521edd012321029bb13463ddd5d2cc05da6e84e37536cb9525703cfd8f43afdb414988987a92f6acffffffff020040075af075070001510000000000000000015100000000", ""],

["Coinbase of size 2"],
["Note the input is just required to make the tester happy"],
[[["0000000000000000000000000000000000000000000000000000000000000000", -1, "1"]],
"01000000010000000000000000000000000000000000000000000000000000000000000000ffffffff025151ffffffff010000000000000000015100000000", ""],

["Coinbase of size 100"],
["Note the input is just required to make the tester happy"],
[[["0000000000000000000000000000000000000000000000000000000000000000", -1, "1"]],
"01000000010000000000000000000000000000000000000000000000000000000000000000ffffffff6451515151515151515151515151515151515151515151515151515151515151515151515151515151515151515151515151515151515151515151515151515151515151515151515151515151515151515151515151515151515151515151515151515151ffffffff010000000000000000015100000000", ""],

["Simple transaction with first input is signed with SIGHASH_ALL, second with SIGHASH_ANYONECANPAY"],
[[["0000000000000000000000000000000000000000000000000000000000000100", 0, "0x21 0x035e7f0d4d0841bcd56c39337ed086b1a633ee770c1ffdd94ac552a95ac2ce0efc CHECKSIG"],
  ["0000000000000000000000000000000000000000000000000000000000000200", 0, "0x21 0x035e7f0d4d0841bcd56c39337ed086b1a633ee770c1ffdd94ac552a95ac2ce0efc CHECKSIG"]],
 "010000000200010000000000000000000000000000000000000000000000000000000000000000000049483045022100d180fd2eb9140aeb4210c9204d3f358766eb53842b2a9473db687fa24b12a3cc022079781799cd4f038b85135bbe49ec2b57f306b2bb17101b17f71f000fcab2b6fb01ffffffff0002000000000000000000000000000000000000000000000000000000000000000000004847304402205f7530653eea9b38699e476320ab135b74771e1c48b81a5d041e2ca84b9be7a802200ac8d1f40fb026674fe5a5edd3dea715c27baa9baca51ed45ea750ac9dc0a55e81ffffffff010100000000000000015100000000", ""],

["Same as above, but we change the sequence number of the first input to check that SIGHASH_ANYONECANPAY is being followed"],
[[["0000000000000000000000000000000000000000000000000000000000000100", 0, "0x21 0x035e7f0d4d0841bcd56c39337ed086b1a633ee770c1ffdd94ac552a95ac2ce0efc CHECKSIG"],
  ["0000000000000000000000000000000000000000000000000000000000000200", 0, "0x21 0x035e7f0d4d0841bcd56c39337ed086b1a633ee770c1ffdd94ac552a95ac2ce0efc CHECKSIG"]],
 "01000000020001000000000000000000000000000000000000000000000000000000000000000000004847304402203a0f5f0e1f2bdbcd04db3061d18f3af70e07f4f467cbc1b8116f267025f5360b0220386d491dea503a5038de5cae13bec18d77a91172149a62bbd15bfc79bcf4b35001010000000002000000000000000000000000000000000000000000000000000000000000000000004847304402205f7530653eea9b38699e476320ab135b74771e1c48b81a5d041e2ca84b9be7a802200ac8d1f40fb026674fe5a5edd3dea715c27baa9baca51ed45ea750ac9dc0a55e81ffffffff010100000000000000015100000000", ""],

["afd9c17f8913577ec3509520bd6e5d63e9c0fd2a5f70c787993b097ba6ca9fae which has several SIGHASH_SINGLE signatures"],
[[["63cfa5a09dc540bf63e53713b82d9ea3692ca97cd608c384f2aa88e51a0aac70", 0, "DUP HASH160 0x14 0xdcf72c4fd02f5a987cf9b02f2fabfcac3341a87d EQUALVERIFY CHECKSIG"],
 ["04e8d0fcf3846c6734477b98f0f3d4badfb78f020ee097a0be5fe347645b817d", 1, "DUP HASH160 0x14 0xdcf72c4fd02f5a987cf9b02f2fabfcac3341a87d EQUALVERIFY CHECKSIG"],
 ["ee1377aff5d0579909e11782e1d2f5f7b84d26537be7f5516dd4e43373091f3f", 1, "DUP HASH160 0x14 0xdcf72c4fd02f5a987cf9b02f2fabfcac3341a87d EQUALVERIFY CHECKSIG"]],
 "010000000370ac0a1ae588aaf284c308d67ca92c69a39e2db81337e563bf40c59da0a5cf63000000006a4730440220360d20baff382059040ba9be98947fd678fb08aab2bb0c172efa996fd8ece9b702201b4fb0de67f015c90e7ac8a193aeab486a1f587e0f54d0fb9552ef7f5ce6caec032103579ca2e6d107522f012cd00b52b9a65fb46f0c57b9b8b6e377c48f526a44741affffffff7d815b6447e35fbea097e00e028fb7dfbad4f3f0987b4734676c84f3fcd0e804010000006b483045022100c714310be1e3a9ff1c5f7cacc65c2d8e781fc3a88ceb063c6153bf950650802102200b2d0979c76e12bb480da635f192cc8dc6f905380dd4ac1ff35a4f68f462fffd032103579ca2e6d107522f012cd00b52b9a65fb46f0c57b9b8b6e377c48f526a44741affffffff3f1f097333e4d46d51f5e77b53264db8f7f5d2e18217e1099957d0f5af7713ee010000006b483045022100b663499ef73273a3788dea342717c2640ac43c5a1cf862c9e09b206fcb3f6bb802204f668d18a68d26eb70d422b9d1a3496362edbb9b264c4a715c4be7cc533a3069032103579ca2e6d107522f012cd00b52b9a65fb46f0c57b9b8b6e377c48f526a44741affffffff0380841e00000000001976a914bfb282c70c4191f45b5a6665cad1682f2c9cfdfb88ac80841e00000000001976a9149857cc07bed33a5cf12b9c5e0500b675d500c81188ace0fd1c00000000001976a91443c52850606c872403c0601e69fa34b26f62db4a88ac00000000", ""],

 ["ddc454a1c0c35c188c98976b17670f69e586d9c0f3593ea879928332f0a069e7, which spends an input that pushes using a PUSHDATA1 that is negative when read as signed"],
 [[["c5510a5dd97a25f43175af1fe649b707b1df8e1a41489bac33a23087027a2f48", 0, "0x4c 0xae 0x606563686f2022553246736447566b58312b5a536e587574356542793066794778625456415675534a6c376a6a334878416945325364667657734f53474f36633338584d7439435c6e543249584967306a486956304f376e775236644546673d3d22203e20743b206f70656e73736c20656e63202d7061737320706173733a5b314a564d7751432d707269766b65792d6865785d202d64202d6165732d3235362d636263202d61202d696e207460 DROP DUP HASH160 0x14 0xbfd7436b6265aa9de506f8a994f881ff08cc2872 EQUALVERIFY CHECKSIG"]],
 "0100000001482f7a028730a233ac9b48411a8edfb107b749e61faf7531f4257ad95d0a51c5000000008b483045022100bf0bbae9bde51ad2b222e87fbf67530fbafc25c903519a1e5dcc52a32ff5844e022028c4d9ad49b006dd59974372a54291d5764be541574bb0c4dc208ec51f80b7190141049dd4aad62741dc27d5f267f7b70682eee22e7e9c1923b9c0957bdae0b96374569b460eb8d5b40d972e8c7c0ad441de3d94c4a29864b212d56050acb980b72b2bffffffff0180969800000000001976a914e336d0017a9d28de99d16472f6ca6d5a3a8ebc9988ac00000000", ""],

["Correct signature order"],
["Note the input is just required to make the tester happy"],
[[["b3da01dd4aae683c7aee4d5d8b52a540a508e1115f77cd7fa9a291243f501223", 0, "HASH160 0x14 0xb1ce99298d5f07364b57b1e5c9cc00be0b04a954 EQUAL"]],
"01000000012312503f2491a2a97fcd775f11e108a540a5528b5d4dee7a3c68ae4add01dab300000000fdfd0000483045022100f6649b0eddfdfd4ad55426663385090d51ee86c3481bdc6b0c18ea6c0ece2c0b0220561c315b07cffa6f7dd9df96dbae9200c2dee09bf93cc35ca05e6cdf613340aa0147304402207aacee820e08b0b174e248abd8d7a34ed63b5da3abedb99934df9fddd65c05c402202017876954a11c20b893d9aa06041a41b2111027bb63b6360a013d76304e4b4d014c695221031d11db38972b712a9fe1fc023577c7ae3ddb4a3004187d41c45121eecfdbb5b7210207ec36911b6ad2382860d32989c7b8728e9489d7bbc94a6b5509ef0029be128821024ea9fac06f666a4adc3fc1357b7bec1fd0bdece2b9d08579226a8ebde53058e453aeffffffff0180380100000000001976a914c9b99cddf847d10685a4fabaa0baf505f7c3dfab88ac00000000", ""],

["cc60b1f899ec0a69b7c3f25ddf32c4524096a9c5b01cbd84c6d0312a0c478984, which is a fairly strange transaction which relies on OP_CHECKSIG returning 0 when checking a completely invalid sig of length 0"],
[[["cbebc4da731e8995fe97f6fadcd731b36ad40e5ecb31e38e904f6e5982fa09f7", 0, "0x2102085c6600657566acc2d6382a47bc3f324008d2aa10940dd7705a48aa2a5a5e33ac7c2103f5d0fb955f95dd6be6115ce85661db412ec6a08abcbfce7da0ba8297c6cc0ec4ac7c5379a820d68df9e32a147cffa36193c6f7c43a1c8c69cda530e1c6db354bfabdcfefaf3c875379a820f531f3041d3136701ea09067c53e7159c8f9b2746a56c3d82966c54bbc553226879a5479827701200122a59a5379827701200122a59a6353798277537982778779679a68"]],
"0100000001f709fa82596e4f908ee331cb5e0ed46ab331d7dcfaf697fe95891e73dac4ebcb000000008c20ca42095840735e89283fec298e62ac2ddea9b5f34a8cbb7097ad965b87568100201b1b01dc829177da4a14551d2fc96a9db00c6501edfa12f22cd9cefd335c227f483045022100a9df60536df5733dd0de6bc921fab0b3eee6426501b43a228afa2c90072eb5ca02201c78b74266fac7d1db5deff080d8a403743203f109fbcabf6d5a760bf87386d20100ffffffff01c075790000000000232103611f9a45c18f28f06f19076ad571c344c82ce8fcfe34464cf8085217a2d294a6ac00000000", ""],

["Empty signature"],
[[["9ca93cfd8e3806b9d9e2ba1cf64e3cc6946ee0119670b1796a09928d14ea25f7", 0, "0x21 0x028a1d66975dbdf97897e3a4aef450ebeb5b5293e4a0b4a6d3a2daaa0b2b110e02 CHECKSIG NOT"]],
"0100000001f725ea148d92096a79b1709611e06e94c63c4ef61cbae2d9b906388efd3ca99c000000000100ffffffff0101000000000000002321028a1d66975dbdf97897e3a4aef450ebeb5b5293e4a0b4a6d3a2daaa0b2b110e02ac00000000", ""],

[[["444e00ed7840d41f20ecd9c11d3f91982326c731a02f3c05748414a4fa9e59be", 0, "1 0x00 0x21 0x02136b04758b0b6e363e7a6fbe83aaf527a153db2b060d36cc29f7f8309ba6e458 2 CHECKMULTISIG"]],
"0100000001be599efaa4148474053c2fa031c7262398913f1dc1d9ec201fd44078ed004e44000000004900473044022022b29706cb2ed9ef0cb3c97b72677ca2dfd7b4160f7b4beb3ba806aa856c401502202d1e52582412eba2ed474f1f437a427640306fd3838725fab173ade7fe4eae4a01ffffffff010100000000000000232103ac4bba7e7ca3e873eea49e08132ad30c7f03640b6539e9b59903cf14fd016bbbac00000000", ""],

[[["ebbcf4bfce13292bd791d6a65a2a858d59adbf737e387e40370d4e64cc70efb0", 0, "2 0x21 0x033bcaa0a602f0d44cc9d5637c6e515b0471db514c020883830b7cefd73af04194 0x21 0x03a88b326f8767f4f192ce252afe33c94d25ab1d24f27f159b3cb3aa691ffe1423 2 CHECKMULTISIG NOT"]],
"0100000001b0ef70cc644e0d37407e387e73bfad598d852a5aa6d691d72b2913cebff4bceb0000000003000000ffffffff0101000000000000002321033bcaa0a602f0d44cc9d5637c6e515b0471db514c020883830b7cefd73af04194ac00000000", ""],

[[["ba4cd7ae2ad4d4d13ebfc8ab1d93a63e4a6563f25089a18bf0fc68f282aa88c1", 0, "2 0x21 0x037c615d761e71d38903609bf4f46847266edc2fb37532047d747ba47eaae5ffe1 0x21 0x02edc823cd634f2c4033d94f5755207cb6b60c4b1f1f056ad7471c47de5f2e4d50 2 CHECKMULTISIG NOT"]],
"0100000001c188aa82f268fcf08ba18950f263654a3ea6931dabc8bf3ed1d4d42aaed74cba0000000003000000ffffffff0101000000000000002321037c615d761e71d38903609bf4f46847266edc2fb37532047d747ba47eaae5ffe1ac00000000", ""],


["OP_CODESEPARATOR tests"],

["Test that SignatureHash() removes OP_CODESEPARATOR with FindAndDelete()"],
[[["bc7fd132fcf817918334822ee6d9bd95c889099c96e07ca2c1eb2cc70db63224", 0, "CODESEPARATOR 0x21 0x038479a0fa998cd35259a2ef0a7a5c68662c1474f88ccb6d08a7677bbec7f22041 CHECKSIG"]],
"01000000012432b60dc72cebc1a27ce0969c0989c895bdd9e62e8234839117f8fc32d17fbc0000000049483045022100a576b52051962c25e642c0fd3d77ee6c92487048e5d90818bcf5b51abaccd79002207dfb0704ede41b13c4dbb7c4e06d27639fa9949575355207637e1ba461b0299c01ffffffff010000000000000000016a00000000", ""],
[[["83e194f90b6ef21fa2e3a365b63794fb5daa844bdc9b25de30899fcfe7b01047", 0, "CODESEPARATOR CODESEPARATOR 0x21 0x038479a0fa998cd35259a2ef0a7a5c68662c1474f88ccb6d08a7677bbec7f22041 CHECKSIG"]],
"01000000014710b0e7cf9f8930de259bdc4b84aa5dfb9437b665a3e3a21ff26e0bf994e1830000000049483045022100a166121a61b4eeb19d8f922b978ff6ab58ead8a5a5552bf9be73dc9c156873ea02206d52643bc119b825b099ad3cdf7ff212eba5f0c60eb3ff90cf4c684e04fe9fcf01ffffffff010000000000000000016a00000000", ""],

["Hashed data starts at the CODESEPARATOR"],
[[["326882a7f22b5191f1a0cc9962ca4b878cd969cf3b3a70887aece4d801a0ba5e", 0, "0x21 0x038479a0fa998cd35259a2ef0a7a5c68662c1474f88ccb6d08a7677bbec7f22041 CODESEPARATOR CHECKSIG"]],
"01000000015ebaa001d8e4ec7a88703a3bcf69d98c874bca6299cca0f191512bf2a7826832000000004847304402203bf754d1c6732fbf87c5dcd81258aefd30f2060d7bd8ac4a5696f7927091dad102200a4348d93b30a12f12cb33ec252112089200cca0f77d6bf9a40c5302db67765a01ffffffff010000000000000000016a00000000", ""],

["But only if execution has reached it"],
[[["a955032f4d6b0c9bfe8cad8f00a8933790b9c1dc28c82e0f48e75b35da0e4944", 0, "0x21 0x038479a0fa998cd35259a2ef0a7a5c68662c1474f88ccb6d08a7677bbec7f22041 CHECKSIGVERIFY CODESEPARATOR 0x21 0x038479a0fa998cd35259a2ef0a7a5c68662c1474f88ccb6d08a7677bbec7f22041 CHECKSIGVERIFY CODESEPARATOR 1"]],
"010000000144490eda355be7480f2ec828dcc1b9903793a8008fad8cfe9b0c6b4d2f0355a900000000914830450221009c0a27f886a1d8cb87f6f595fbc3163d28f7a81ec3c4b252ee7f3ac77fd13ffa02203caa8dfa09713c8c4d7ef575c75ed97812072405d932bd11e6a1593a98b679370147304402201e3861ef39a526406bad1e20ecad06be7375ad40ddb582c9be42d26c3a0d7b24022062f5c67a169add1a69ca2e633bbb7ab7733b4618a05725e2d7fb124ddbd2181e01ffffffff010000000000000000016a00000000", ""],

["CODESEPARATOR in an unexecuted IF block does not change what is hashed"],
[[["a955032f4d6b0c9bfe8cad8f00a8933790b9c1dc28c82e0f48e75b35da0e4944", 0, "IF CODESEPARATOR ENDIF 0x21 0x0378d430274f8c5ec1321338151e9f27f4c676a008bdf8638d07c0b6be9ab35c71 CHECKSIGVERIFY CODESEPARATOR 1"]],
"010000000144490eda355be7480f2ec828dcc1b9903793a8008fad8cfe9b0c6b4d2f0355a9000000004947304402207a6974a77c591fa13dff60cabbb85a0de9e025c09c65a4b2285e47ce8e22f76102200f10553600753c94ef8de1f551e04688f1a9dc31a2f1b79af37fae4c91321b640100ffffffff010000000000000000016a00000000", ""],

["As above, with the IF block executed"],
[[["a955032f4d6b0c9bfe8cad8f00a8933790b9c1dc28c82e0f48e75b35da0e4944", 0, "IF CODESEPARATOR ENDIF 0x21 0x0378d430274f8c5ec1321338151e9f27f4c676a008bdf8638d07c0b6be9ab35c71 CHECKSIGVERIFY CODESEPARATOR 1"]],
"010000000144490eda355be7480f2ec828dcc1b9903793a8008fad8cfe9b0c6b4d2f0355a9000000004a483045022100fa4a74ba9fd59c59f46c3960cf90cbe0d2b743c471d24a3d5d6db6002af5eebb02204d70ec490fd0f7055a7c45f86514336e3a7f03503dacecabb247fc23f15c83510151ffffffff010000000000000000016a00000000", ""],

["Finally CHECKMULTISIG removes all signatures prior to hashing the script containing those signatures. In conjunction with the SIGHASH_SINGLE bug this lets us test whether or not FindAndDelete() is actually present in scriptPubKey/redeemScript evaluation by including a signature of the digest 0x01 We can compute in advance for our pubkey, embed it in the scriptPubKey, and then also using a normal SIGHASH_ALL signature. If FindAndDelete() wasn't run, the 'bugged' signature would still be in the hashed script, and the normal signature would fail."],

["Same idea, but with bare CHECKMULTISIG"],
[[["ceafe58e0f6e7d67c0409fbbf673c84c166e3c5d3c24af58f7175b18df3bb3db", 0, "DUP HASH160 0x14 0xf6f365c40f0739b61de827a44751e5e99032ed8f EQUALVERIFY CHECKSIG"],
  ["ceafe58e0f6e7d67c0409fbbf673c84c166e3c5d3c24af58f7175b18df3bb3db", 1, "2 0x48 0x3045022015bd0139bcccf990a6af6ec5c1c52ed8222e03a0d51c334df139968525d2fcd20221009f9efe325476eb64c3958e4713e9eefe49bf1d820ed58d2112721b134e2a1a5303 0x21 0x0378d430274f8c5ec1321338151e9f27f4c676a008bdf8638d07c0b6be9ab35c71 0x21 0x0378d430274f8c5ec1321338151e9f27f4c676a008bdf8638d07c0b6be9ab35c71 3 CHECKMULTISIG"]],
"0100000002dbb33bdf185b17f758af243c5d3c6e164cc873f6bb9f40c0677d6e0f8ee5afce000000006b4830450221009627444320dc5ef8d7f68f35010b4c050a6ed0d96b67a84db99fda9c9de58b1e02203e4b4aaa019e012e65d69b487fdf8719df72f488fa91506a80c49a33929f1fd50121022b78b756e2258af13779c1a1f37ea6800259716ca4b7f0b87610e0bf3ab52a01ffffffffdbb33bdf185b17f758af243c5d3c6e164cc873f6bb9f40c0677d6e0f8ee5afce010000009100473044022015bd0139bcccf990a6af6ec5c1c52ed8222e03a0d51c334df139968525d2fcd20220606101cdab89149b3c6a71b8ec16110070efbf64a073131aad604379820c26ee03473044022015bd0139bcccf990a6af6ec5c1c52ed8222e03a0d51c334df139968525d2fcd20220606101cdab89149b3c6a71b8ec16110070efbf64a073131aad604379820c26ee03ffffffff01a0860100000000001976a9149bc0bbdd3024da4d0c38ed1aecf5c68dd1d3fa1288ac00000000", ""],


["CHECKLOCKTIMEVERIFY tests"],

["By-height locks, with argument == 0 and == tx nLockTime"],
[[["0000000000000000000000000000000000000000000000000000000000000100", 0, "0 CHECKLOCKTIMEVERIFY 1"]],
"010000000100010000000000000000000000000000000000000000000000000000000000000000000000000000000100000000000000000000000000", ""],
[[["0000000000000000000000000000000000000000000000000000000000000100", 0, "499999999 CHECKLOCKTIMEVERIFY 1"]],
"0100000001000100000000000000000000000000000000000000000000000000000000000000000000000000000001000000000000000000ff64cd1d", ""],
[[["0000000000000000000000000000000000000000000000000000000000000100", 0, "0 CHECKLOCKTIMEVERIFY 1"]],
"0100000001000100000000000000000000000000000000000000000000000000000000000000000000000000000001000000000000000000ff64cd1d", ""],

["By-time locks, with argument just beyond tx nLockTime (but within numerical boundaries)"],
[[["0000000000000000000000000000000000000000000000000000000000000100", 0, "500000000 CHECKLOCKTIMEVERIFY 1"]],
"01000000010001000000000000000000000000000000000000000000000000000000000000000000000000000000010000000000000000000065cd1d", ""],
[[["0000000000000000000000000000000000000000000000000000000000000100", 0, "4294967295 CHECKLOCKTIMEVERIFY 1"]],
"0100000001000100000000000000000000000000000000000000000000000000000000000000000000000000000001000000000000000000ffffffff", ""],
[[["0000000000000000000000000000000000000000000000000000000000000100", 0, "500000000 CHECKLOCKTIMEVERIFY 1"]],
"0100000001000100000000000000000000000000000000000000000000000000000000000000000000000000000001000000000000000000ffffffff", ""],

["Any non-maxint nSequence is fine"],
[[["0000000000000000000000000000000000000000000000000000000000000100", 0, "0 CHECKLOCKTIMEVERIFY 1"]],
"010000000100010000000000000000000000000000000000000000000000000000000000000000000000feffffff0100000000000000000000000000", ""],

["The argument can be calculated rather than created directly by a PUSHDATA"],
[[["0000000000000000000000000000000000000000000000000000000000000100", 0, "499999999 1ADD CHECKLOCKTIMEVERIFY 1"]],
"01000000010001000000000000000000000000000000000000000000000000000000000000000000000000000000010000000000000000000065cd1d", ""],

["Perhaps even by an ADD producing a 5-byte result that is out of bounds for other opcodes"],
[[["0000000000000000000000000000000000000000000000000000000000000100", 0, "2147483647 2147483647 ADD CHECKLOCKTIMEVERIFY 1"]],
"0100000001000100000000000000000000000000000000000000000000000000000000000000000000000000000001000000000000000000feffffff", ""],

["Valid CHECKLOCKTIMEVERIFY in redeemScript"],
[[["0000000000000000000000000000000000000000000000000000000000000100", 0, "HASH160 0x14 0xc5b93064159b3b2d6ab506a41b1f50463771b988 EQUAL"]],
"0100000001000100000000000000000000000000000000000000000000000000000000000000000000030251b1000000000100000000000000000001000000", ""],

["A transaction with a non-standard DER signature."],
[[["b1dbc81696c8a9c0fccd0693ab66d7c368dbc38c0def4e800685560ddd1b2132", 0, "DUP HASH160 0x14 0x4b3bd7eba3bc0284fd3007be7f3be275e94f5826 EQUALVERIFY CHECKSIG"]],
"010000000132211bdd0d568506804eef0d8cc3db68c3d766ab9306cdfcc0a9c89616c8dbb1000000006b483045022100c7bb0faea0522e74ff220c20c022d2cb6033f8d167fb89e75a50e237a35fd6d202203064713491b1f8ad5f79e623d0219ad32510bfaa1009ab30cbee77b59317d6e301210237af13eb2d84e4545af287b919c2282019c9691cc509e78e196a9d8274ed1be0ffffffff0100000000000000001976a914f1b3ed2eda9a2ebe5a9374f692877cdf87c0f95b88ac00000000", ""],

["CHECKSEQUENCEVERIFY tests"],

["By-height locks, with argument == 0 and == txin.nSequence"],
[[["0000000000000000000000000000000000000000000000000000000000000100", 0, "0 CHECKSEQUENCEVERIFY 1"]],
"020000000100010000000000000000000000000000000000000000000000000000000000000000000000000000000100000000000000000000000000", ""],
[[["0000000000000000000000000000000000000000000000000000000000000100", 0, "65535 CHECKSEQUENCEVERIFY 1"]],
"020000000100010000000000000000000000000000000000000000000000000000000000000000000000ffff00000100000000000000000000000000", ""],
[[["0000000000000000000000000000000000000000000000000000000000000100", 0, "65535 CHECKSEQUENCEVERIFY 1"]],
"020000000100010000000000000000000000000000000000000000000000000000000000000000000000ffffbf7f0100000000000000000000000000", ""],
[[["0000000000000000000000000000000000000000000000000000000000000100", 0, "0 CHECKSEQUENCEVERIFY 1"]],
"020000000100010000000000000000000000000000000000000000000000000000000000000000000000ffffbf7f0100000000000000000000000000", ""],

["By-time locks, with argument == 0 and == txin.nSequence"],
[[["0000000000000000000000000000000000000000000000000000000000000100", 0, "4194304 CHECKSEQUENCEVERIFY 1"]],
"020000000100010000000000000000000000000000000000000000000000000000000000000000000000000040000100000000000000000000000000", ""],
[[["0000000000000000000000000000000000000000000000000000000000000100", 0, "4259839 CHECKSEQUENCEVERIFY 1"]],
"020000000100010000000000000000000000000000000000000000000000000000000000000000000000ffff40000100000000000000000000000000", ""],
[[["0000000000000000000000000000000000000000000000000000000000000100", 0, "4259839 CHECKSEQUENCEVERIFY 1"]],
"020000000100010000000000000000000000000000000000000000000000000000000000000000000000ffffff7f0100000000000000000000000000", ""],
[[["0000000000000000000000000000000000000000000000000000000000000100", 0, "4194304 CHECKSEQUENCEVERIFY 1"]],
"020000000100010000000000000000000000000000000000000000000000000000000000000000000000ffffff7f0100000000000000000000000000", ""],

["Upper sequence with upper sequence is fine"],
[[["0000000000000000000000000000000000000000000000000000000000000100", 0, "2147483648 CHECKSEQUENCEVERIFY 1"]],
"020000000100010000000000000000000000000000000000000000000000000000000000000000000000000000800100000000000000000000000000", ""],
[[["0000000000000000000000000000000000000000000000000000000000000100", 0, "4294967295 CHECKSEQUENCEVERIFY 1"]],
"020000000100010000000000000000000000000000000000000000000000000000000000000000000000000000800100000000000000000000000000", ""],
[[["0000000000000000000000000000000000000000000000000000000000000100", 0, "2147483648 CHECKSEQUENCEVERIFY 1"]],
"020000000100010000000000000000000000000000000000000000000000000000000000000000000000feffffff0100000000000000000000000000", ""],
[[["0000000000000000000000000000000000000000000000000000000000000100", 0, "4294967295 CHECKSEQUENCEVERIFY 1"]],
"020000000100010000000000000000000000000000000000000000000000000000000000000000000000feffffff0100000000000000000000000000", ""],
[[["0000000000000000000000000000000000000000000000000000000000000100", 0, "2147483648 CHECKSEQUENCEVERIFY 1"]],
"020000000100010000000000000000000000000000000000000000000000000000000000000000000000ffffffff0100000000000000000000000000", ""],
[[["0000000000000000000000000000000000000000000000000000000000000100", 0, "4294967295 CHECKSEQUENCEVERIFY 1"]],
"020000000100010000000000000000000000000000000000000000000000000000000000000000000000ffffffff0100000000000000000000000000", ""],

["Argument 2^31 with various nSequence"],
[[["0000000000000000000000000000000000000000000000000000000000000100", 0, "2147483648 CHECKSEQUENCEVERIFY 1"]],
"020000000100010000000000000000000000000000000000000000000000000000000000000000000000ffffbf7f0100000000000000000000000000", ""],
[[["0000000000000000000000000000000000000000000000000000000000000100", 0, "2147483648 CHECKSEQUENCEVERIFY 1"]],
"020000000100010000000000000000000000000000000000000000000000000000000000000000000000ffffff7f0100000000000000000000000000", ""],
[[["0000000000000000000000000000000000000000000000000000000000000100", 0, "2147483648 CHECKSEQUENCEVERIFY 1"]],
"020000000100010000000000000000000000000000000000000000000000000000000000000000000000ffffffff0100000000000000000000000000", ""],

["Argument 2^32-1 with various nSequence"],
[[["0000000000000000000000000000000000000000000000000000000000000100", 0, "4294967295 CHECKSEQUENCEVERIFY 1"]],
"020000000100010000000000000000000000000000000000000000000000000000000000000000000000ffffbf7f0100000000000000000000000000", ""],
[[["0000000000000000000000000000000000000000000000000000000000000100", 0, "4294967295 CHECKSEQUENCEVERIFY 1"]],
"020000000100010000000000000000000000000000000000000000000000000000000000000000000000ffffff7f0100000000000000000000000000", ""],
[[["0000000000000000000000000000000000000000000000000000000000000100", 0, "4294967295 CHECKSEQUENCEVERIFY 1"]],
"020000000100010000000000000000000000000000000000000000000000000000000000000000000000ffffffff0100000000000000000000000000", ""],

["Argument 3<<31 with various nSequence"],
[[["0000000000000000000000000000000000000000000000000000000000000100", 0, "0x050000008001 CHECKSEQUENCEVERIFY 1"]],
"020000000100010000000000000000000000000000000000000000000000000000000000000000000000ffffbf7f0100000000000000000000000000", ""],
[[["0000000000000000000000000000000000000000000000000000000000000100", 0, "0x050000008001 CHECKSEQUENCEVERIFY 1"]],
"020000000100010000000000000000000000000000000000000000000000000000000000000000000000ffffff7f0100000000000000000000000000", ""],
[[["0000000000000000000000000000000000000000000000000000000000000100", 0, "0x050000008001 CHECKSEQUENCEVERIFY 1"]],
"020000000100010000000000000000000000000000000000000000000000000000000000000000000000ffffffff0100000000000000000000000000", ""],

["The argument can be calculated rather than created directly by a PUSHDATA"],
[[["0000000000000000000000000000000000000000000000000000000000000100", 0, "4194303 1ADD CHECKSEQUENCEVERIFY 1"]],
"020000000100010000000000000000000000000000000000000000000000000000000000000000000000000040000100000000000000000000000000", ""],
[[["0000000000000000000000000000000000000000000000000000000000000100", 0, "4194304 1SUB CHECKSEQUENCEVERIFY 1"]],
"020000000100010000000000000000000000000000000000000000000000000000000000000000000000ffff00000100000000000000000000000000", ""],

["An ADD producing a 5-byte result that sets CTxIn::SEQUENCE_LOCKTIME_DISABLE_FLAG"],
[[["0000000000000000000000000000000000000000000000000000000000000100", 0, "2147483647 65536 CHECKSEQUENCEVERIFY 1"]],
"020000000100010000000000000000000000000000000000000000000000000000000000000000000000000000000100000000000000000000000000", ""],
[[["0000000000000000000000000000000000000000000000000000000000000100", 0, "2147483647 4259840 ADD CHECKSEQUENCEVERIFY 1"]],
"020000000100010000000000000000000000000000000000000000000000000000000000000000000000000040000100000000000000000000000000", ""],

["Valid CHECKSEQUENCEVERIFY in redeemScript"],
[[["0000000000000000000000000000000000000000000000000000000000000100", 0, "HASH160 0x14 0x7c17aff532f22beb54069942f9bf567a66133eaf EQUAL"]],
"0200000001000100000000000000000000000000000000000000000000000000000000000000000000030251b2010000000100000000000000000000000000", ""],

["Unknown version witness program with empty witness"],
[[["0000000000000000000000000000000000000000000000000000000000000100", 0, "0x60 0x14 0x4c9c3dfac4207d5d8cb89df5722cb3d712385e3f", 1000]],
"010000000100010000000000000000000000000000000000000000000000000000000000000000000000ffffffff01e803000000000000015100000000", ""],

["Non witness Single|AnyoneCanPay hash input's position"],
[[["0000000000000000000000000000000000000000000000000000000000000100", 0, "0x21 0x03596d3451025c19dbbdeb932d6bf8bfb4ad499b95b6f88db8899efac102e5fc71 CHECKSIG", 1000],
["0000000000000000000000000000000000000000000000000000000000000100", 1, "0x21 0x03596d3451025c19dbbdeb932d6bf8bfb4ad499b95b6f88db8899efac102e5fc71 CHECKSIG", 1001]],
"01000000020001000000000000000000000000000000000000000000000000000000000000000000004847304402202a0b4b1294d70540235ae033d78e64b4897ec859c7b6f1b2b1d8a02e1d46006702201445e756d2254b0f1dfda9ab8e1e1bc26df9668077403204f32d16a49a36eb6983ffffffff00010000000000000000000000000000000000000000000000000000000000000100000049483045022100acb96cfdbda6dc94b489fd06f2d720983b5f350e31ba906cdbd800773e80b21c02200d74ea5bdf114212b4bbe9ed82c36d2e369e302dff57cb60d01c428f0bd3daab83ffffffff02e8030000000000000151e903000000000000015100000000", ""],

["Make diffs cleaner by leaving a comment here without comma at the end"]
]
